{
  "_format": "hh-sol-artifact-1",
  "contractName": "MyToken",
  "sourceName": "contracts/MyToken.sol",
  "abi": [
    {
      "inputs": [],
      "stateMutability": "nonpayable",
      "type": "constructor"
    },
    {
      "anonymous": false,
      "inputs": [
        {
          "indexed": true,
          "internalType": "address",
          "name": "from",
          "type": "address"
        },
        {
          "indexed": true,
          "internalType": "address",
          "name": "to",
          "type": "address"
        },
        {
          "indexed": false,
          "internalType": "uint256",
          "name": "value",
          "type": "uint256"
        }
      ],
      "name": "Transfer",
      "type": "event"
    },
    {
      "inputs": [
        {
          "internalType": "address",
          "name": "",
          "type": "address"
        }
      ],
      "name": "balanceOf",
      "outputs": [
        {
          "internalType": "uint256",
          "name": "",
          "type": "uint256"
        }
      ],
      "stateMutability": "view",
      "type": "function"
    },
    {
      "inputs": [],
      "name": "decimals",
      "outputs": [
        {
          "internalType": "uint8",
          "name": "",
          "type": "uint8"
        }
      ],
      "stateMutability": "view",
      "type": "function"
    },
    {
      "inputs": [
        {
          "internalType": "address",
          "name": "_to",
          "type": "address"
        },
        {
          "internalType": "uint256",
          "name": "_value",
          "type": "uint256"
        }
      ],
      "name": "mint",
      "outputs": [],
      "stateMutability": "payable",
      "type": "function"
    },
    {
      "inputs": [],
      "name": "name",
      "outputs": [
        {
          "internalType": "string",
          "name": "",
          "type": "string"
        }
      ],
      "stateMutability": "view",
      "type": "function"
    },
    {
      "inputs": [],
      "name": "symbol",
      "outputs": [
        {
          "internalType": "string",
          "name": "",
          "type": "string"
        }
      ],
      "stateMutability": "view",
      "type": "function"
    },
    {
      "inputs": [
        {
          "internalType": "address",
          "name": "_to",
          "type": "address"
        },
        {
          "internalType": "uint256",
          "name": "_value",
          "type": "uint256"
        }
      ],
      "name": "transfer",
      "outputs": [],
      "stateMutability": "payable",
      "type": "function"
    }
  ],
  "bytecode": "0x608060405234801561001057600080fd5b506040518060400160405280600581526020017f4e616d616e0000000000000000000000000000000000000000000000000000008152506000908051906020019061005c9291906100ca565b506040518060400160405280600381526020017f4e4b540000000000000000000000000000000000000000000000000000000000815250600190805190602001906100a89291906100ca565b506012600260006101000a81548160ff021916908360ff1602179055506101ce565b8280546100d69061016d565b90600052602060002090601f0160209004810192826100f8576000855561013f565b82601f1061011157805160ff191683800117855561013f565b8280016001018555821561013f579182015b8281111561013e578251825591602001919060010190610123565b5b50905061014c9190610150565b5090565b5b80821115610169576000816000905550600101610151565b5090565b6000600282049050600182168061018557607f821691505b602082108114156101995761019861019f565b5b50919050565b7f4e487b7100000000000000000000000000000000000000000000000000000000600052602260045260246000fd5b610861806101dd6000396000f3fe6080604052600436106100555760003560e01c806306fdde031461005a578063313ce5671461008557806340c10f19146100b057806370a08231146100cc57806395d89b4114610109578063a9059cbb14610134575b600080fd5b34801561006657600080fd5b5061006f610150565b60405161007c91906105e2565b60405180910390f35b34801561009157600080fd5b5061009a6101de565b6040516100a7919061061f565b60405180910390f35b6100ca60048036038101906100c5919061054f565b6101f1565b005b3480156100d857600080fd5b506100f360048036038101906100ee9190610526565b6102e9565b6040516101009190610604565b60405180910390f35b34801561011557600080fd5b5061011e610301565b60405161012b91906105e2565b60405180910390f35b61014e6004803603810190610149919061054f565b61038f565b005b6000805461015d9061075c565b80601f01602080910402602001604051908101604052809291908181526020018280546101899061075c565b80156101d65780601f106101ab576101008083540402835291602001916101d6565b820191906000526020600020905b8154815290600101906020018083116101b957829003601f168201915b505050505081565b600260009054906101000a900460ff1681565b3073ffffffffffffffffffffffffffffffffffffffff163373ffffffffffffffffffffffffffffffffffffffff161461022957600080fd5b80600360008473ffffffffffffffffffffffffffffffffffffffff1673ffffffffffffffffffffffffffffffffffffffff16815260200190815260200160002060008282546102789190610656565b925050819055508173ffffffffffffffffffffffffffffffffffffffff16600073ffffffffffffffffffffffffffffffffffffffff167fddf252ad1be2c89b69c2b068fc378daa952ba7f163c4a11628f55a4df523b3ef836040516102dd9190610604565b60405180910390a35050565b60036020528060005260406000206000915090505481565b6001805461030e9061075c565b80601f016020809104026020016040519081016040528092919081815260200182805461033a9061075c565b80156103875780601f1061035c57610100808354040283529160200191610387565b820191906000526020600020905b81548152906001019060200180831161036a57829003601f168201915b505050505081565b80600360003373ffffffffffffffffffffffffffffffffffffffff1673ffffffffffffffffffffffffffffffffffffffff16815260200190815260200160002054101580156103de5750600081115b6103e757600080fd5b80600360003373ffffffffffffffffffffffffffffffffffffffff1673ffffffffffffffffffffffffffffffffffffffff168152602001908152602001600020600082825461043691906106ac565b9250508190555080600360008473ffffffffffffffffffffffffffffffffffffffff1673ffffffffffffffffffffffffffffffffffffffff168152602001908152602001600020600082825461048c9190610656565b925050819055508173ffffffffffffffffffffffffffffffffffffffff163373ffffffffffffffffffffffffffffffffffffffff167fddf252ad1be2c89b69c2b068fc378daa952ba7f163c4a11628f55a4df523b3ef836040516104f09190610604565b60405180910390a35050565b60008135905061050b816107fd565b92915050565b60008135905061052081610814565b92915050565b60006020828403121561053857600080fd5b6000610546848285016104fc565b91505092915050565b6000806040838503121561056257600080fd5b6000610570858286016104fc565b925050602061058185828601610511565b9150509250929050565b60006105968261063a565b6105a08185610645565b93506105b0818560208601610729565b6105b9816107ec565b840191505092915050565b6105cd81610712565b82525050565b6105dc8161071c565b82525050565b600060208201905081810360008301526105fc818461058b565b905092915050565b600060208201905061061960008301846105c4565b92915050565b600060208201905061063460008301846105d3565b92915050565b600081519050919050565b600082825260208201905092915050565b600061066182610712565b915061066c83610712565b9250827fffffffffffffffffffffffffffffffffffffffffffffffffffffffffffffffff038211156106a1576106a061078e565b5b828201905092915050565b60006106b782610712565b91506106c283610712565b9250828210156106d5576106d461078e565b5b828203905092915050565b60006106eb826106f2565b9050919050565b600073ffffffffffffffffffffffffffffffffffffffff82169050919050565b6000819050919050565b600060ff82169050919050565b60005b8381101561074757808201518184015260208101905061072c565b83811115610756576000848401525b50505050565b6000600282049050600182168061077457607f821691505b60208210811415610788576107876107bd565b5b50919050565b7f4e487b7100000000000000000000000000000000000000000000000000000000600052601160045260246000fd5b7f4e487b7100000000000000000000000000000000000000000000000000000000600052602260045260246000fd5b6000601f19601f8301169050919050565b610806816106e0565b811461081157600080fd5b50565b61081d81610712565b811461082857600080fd5b5056fea2646970667358221220a34cff1875a1a86838259dfea05a8f85cc894ce23243b2140797aeccbf8c5b8464736f6c63430008000033",
  "linkReferences": {},
  "deployedLinkReferences": {}
}